{
  "contractName": "Adoption",
  "abi": [
    {
      "constant": true,
      "inputs": [
        {
          "name": "",
          "type": "uint256"
        }
      ],
      "name": "adopters",
      "outputs": [
        {
          "name": "",
          "type": "address"
        }
      ],
      "payable": false,
      "stateMutability": "view",
      "type": "function"
    },
    {
      "constant": true,
      "inputs": [
        {
          "name": "",
          "type": "uint256"
        }
      ],
      "name": "userAddresses",
      "outputs": [
        {
          "name": "",
          "type": "address"
        }
      ],
      "payable": false,
      "stateMutability": "view",
      "type": "function"
    },
    {
      "constant": false,
      "inputs": [
        {
          "name": "petId",
          "type": "uint256"
        }
      ],
      "name": "adopt",
      "outputs": [
        {
          "name": "",
          "type": "uint256"
        }
      ],
      "payable": false,
      "stateMutability": "nonpayable",
      "type": "function"
    },
    {
      "constant": false,
      "inputs": [
        {
          "name": "username",
          "type": "string"
        },
        {
          "name": "password",
          "type": "string"
        }
      ],
      "name": "login",
      "outputs": [
        {
          "name": "",
          "type": "bool"
        }
      ],
      "payable": false,
      "stateMutability": "nonpayable",
      "type": "function"
    },
    {
      "constant": true,
      "inputs": [
        {
          "name": "_username",
          "type": "string"
        }
      ],
      "name": "findUserAddressByUsername",
      "outputs": [
        {
          "name": "userAddress",
          "type": "address"
        }
      ],
      "payable": false,
      "stateMutability": "view",
      "type": "function"
    },
    {
      "constant": false,
      "inputs": [
        {
          "name": "_userAddress",
          "type": "address"
        },
        {
          "name": "_password",
          "type": "string"
        },
        {
          "name": "_username",
          "type": "string"
        }
      ],
      "name": "createUser",
      "outputs": [
        {
          "name": "index",
          "type": "uint256"
        }
      ],
      "payable": false,
      "stateMutability": "nonpayable",
      "type": "function"
    },
    {
      "constant": true,
      "inputs": [
        {
          "name": "_userAddress",
          "type": "address"
        }
      ],
      "name": "findUser",
      "outputs": [
        {
          "name": "userAddresses",
          "type": "address"
        },
        {
          "name": "username",
          "type": "string"
        },
        {
          "name": "password",
          "type": "string"
        },
        {
          "name": "time",
          "type": "uint256"
        },
        {
          "name": "index",
          "type": "uint256"
        }
      ],
      "payable": false,
      "stateMutability": "view",
      "type": "function"
    },
    {
      "constant": true,
      "inputs": [
        {
          "name": "_username",
          "type": "string"
        }
      ],
      "name": "isExitUsername",
      "outputs": [
        {
          "name": "",
          "type": "bool"
        }
      ],
      "payable": false,
      "stateMutability": "view",
      "type": "function"
    },
    {
      "constant": true,
      "inputs": [
        {
          "name": "_userAddress",
          "type": "address"
        }
      ],
      "name": "isExitUserAddress",
      "outputs": [
        {
          "name": "",
          "type": "bool"
        }
      ],
      "payable": false,
      "stateMutability": "view",
      "type": "function"
    },
    {
      "constant": true,
      "inputs": [],
      "name": "getAdopters",
      "outputs": [
        {
          "name": "",
          "type": "address[16]"
        }
      ],
      "payable": false,
      "stateMutability": "view",
      "type": "function"
    }
  ],
  "bytecode": "0x608060405234801561001057600080fd5b50611237806100206000396000f3006080604052600436106100a4576000357c0100000000000000000000000000000000000000000000000000000000900463ffffffff168063295db392146100a95780633de4eb171461015257806343ae80d3146101a55780634ceb48fd14610212578063502c9bd5146102f557806358467dbc146103625780638588b2c514610429578063a83db77f1461046a578063c4ec3db6146104eb578063df9d902414610546575b600080fd5b3480156100b557600080fd5b50610110600480360381019080803590602001908201803590602001908080601f01602080910402602001604051908101604052809392919081815260200183838082843782019150505050505091929192905050506106af565b604051808273ffffffffffffffffffffffffffffffffffffffff1673ffffffffffffffffffffffffffffffffffffffff16815260200191505060405180910390f35b34801561015e57600080fd5b5061016761075b565b6040518082601060200280838360005b83811015610192578082015181840152602081019050610177565b5050505090500191505060405180910390f35b3480156101b157600080fd5b506101d0600480360381019080803590602001909291905050506107dc565b604051808273ffffffffffffffffffffffffffffffffffffffff1673ffffffffffffffffffffffffffffffffffffffff16815260200191505060405180910390f35b34801561021e57600080fd5b506102df600480360381019080803573ffffffffffffffffffffffffffffffffffffffff169060200190929190803590602001908201803590602001908080601f0160208091040260200160405190810160405280939291908181526020018383808284378201915050505050509192919290803590602001908201803590602001908080601f0160208091040260200160405190810160405280939291908181526020018383808284378201915050505050509192919290505050610811565b6040518082815260200191505060405180910390f35b34801561030157600080fd5b5061032060048036038101908080359060200190929190505050610aee565b604051808273ffffffffffffffffffffffffffffffffffffffff1673ffffffffffffffffffffffffffffffffffffffff16815260200191505060405180910390f35b34801561036e57600080fd5b5061040f600480360381019080803590602001908201803590602001908080601f0160208091040260200160405190810160405280939291908181526020018383808284378201915050505050509192919290803590602001908201803590602001908080601f0160208091040260200160405190810160405280939291908181526020018383808284378201915050505050509192919290505050610b2c565b604051808215151515815260200191505060405180910390f35b34801561043557600080fd5b5061045460048036038101908080359060200190929190505050610b34565b6040518082815260200191505060405180910390f35b34801561047657600080fd5b506104d1600480360381019080803590602001908201803590602001908080601f0160208091040260200160405190810160405280939291908181526020018383808284378201915050505050509192919290505050610ba9565b604051808215151515815260200191505060405180910390f35b3480156104f757600080fd5b5061052c600480360381019080803573ffffffffffffffffffffffffffffffffffffffff169060200190929190505050610d24565b604051808215151515815260200191505060405180910390f35b34801561055257600080fd5b50610587600480360381019080803573ffffffffffffffffffffffffffffffffffffffff169060200190929190505050610dee565b604051808673ffffffffffffffffffffffffffffffffffffffff1673ffffffffffffffffffffffffffffffffffffffff1681526020018060200180602001858152602001848152602001838103835287818151815260200191508051906020019080838360005b838110156106095780820151818401526020810190506105ee565b50505050905090810190601f1680156106365780820380516001836020036101000a031916815260200191505b50838103825286818151815260200191508051906020019080838360005b8381101561066f578082015181840152602081019050610654565b50505050905090810190601f16801561069c5780820380516001836020036101000a031916815260200191505b5097505050505050505060405180910390f35b60006106ba82610ba9565b15156106c557600080fd5b6013826040518082805190602001908083835b6020831015156106fd57805182526020820191506020810190506020830392506106d8565b6001836020036101000a038019825116818451168082178552505050505050905001915050908152602001604051809103902060000160009054906101000a900473ffffffffffffffffffffffffffffffffffffffff169050919050565b6107636110c2565b60006010806020026040519081016040528092919082601080156107d2576020028201915b8160009054906101000a900473ffffffffffffffffffffffffffffffffffffffff1673ffffffffffffffffffffffffffffffffffffffff1681526020019060010190808311610788575b5050505050905090565b6000816010811015156107eb57fe5b016000915054906101000a900473ffffffffffffffffffffffffffffffffffffffff1681565b600061081c84610d24565b15151561082857600080fd5b60108490806001815401808255809150509060018203906000526020600020016000909192909190916101000a81548173ffffffffffffffffffffffffffffffffffffffff021916908373ffffffffffffffffffffffffffffffffffffffff1602179055505060a0604051908101604052808573ffffffffffffffffffffffffffffffffffffffff168152602001838152602001848152602001428152602001600160108054905003815250601260008673ffffffffffffffffffffffffffffffffffffffff1673ffffffffffffffffffffffffffffffffffffffff16815260200190815260200160002060008201518160000160006101000a81548173ffffffffffffffffffffffffffffffffffffffff021916908373ffffffffffffffffffffffffffffffffffffffff16021790555060208201518160010190805190602001906109769291906110e6565b5060408201518160020190805190602001906109939291906110e6565b50606082015181600301556080820151816004015590505060118290806001815401808255809150509060018203906000526020600020016000909192909190915090805190602001906109e8929190611166565b505060408051908101604052808573ffffffffffffffffffffffffffffffffffffffff1681526020016001601180549050038152506013836040518082805190602001908083835b602083101515610a555780518252602082019150602081019050602083039250610a30565b6001836020036101000a038019825116818451168082178552505050505050905001915050908152602001604051809103902060008201518160000160006101000a81548173ffffffffffffffffffffffffffffffffffffffff021916908373ffffffffffffffffffffffffffffffffffffffff1602179055506020820151816001015590505060016010805490500390509392505050565b601081815481101515610afd57fe5b906000526020600020016000915054906101000a900473ffffffffffffffffffffffffffffffffffffffff1681565b600092915050565b6000808210158015610b475750600f8211155b1515610b5257600080fd5b33600083601081101515610b6257fe5b0160006101000a81548173ffffffffffffffffffffffffffffffffffffffff021916908373ffffffffffffffffffffffffffffffffffffffff160217905550819050919050565b6000806011805490501415610bc15760009050610d1f565b816040518082805190602001908083835b602083101515610bf75780518252602082019150602081019050602083039250610bd2565b6001836020036101000a03801982511681845116808217855250505050505090500191505060405180910390206000191660116013846040518082805190602001908083835b602083101515610c625780518252602082019150602081019050602083039250610c3d565b6001836020036101000a038019825116818451168082178552505050505050905001915050908152602001604051809103902060010154815481101515610ca557fe5b906000526020600020016040518082805460018160011615610100020316600290048015610d0a5780601f10610ce8576101008083540402835291820191610d0a565b820191906000526020600020905b815481529060010190602001808311610cf6575b50509150506040518091039020600019161490505b919050565b6000806010805490501415610d3c5760009050610de9565b8173ffffffffffffffffffffffffffffffffffffffff166010601260008573ffffffffffffffffffffffffffffffffffffffff1673ffffffffffffffffffffffffffffffffffffffff16815260200190815260200160002060040154815481101515610da457fe5b9060005260206000200160009054906101000a900473ffffffffffffffffffffffffffffffffffffffff1673ffffffffffffffffffffffffffffffffffffffff161490505b919050565b6000606080600080610dff86610d24565b1515610e0a57600080fd5b601260008773ffffffffffffffffffffffffffffffffffffffff1673ffffffffffffffffffffffffffffffffffffffff16815260200190815260200160002060000160009054906101000a900473ffffffffffffffffffffffffffffffffffffffff16601260008873ffffffffffffffffffffffffffffffffffffffff1673ffffffffffffffffffffffffffffffffffffffff168152602001908152602001600020600101601260008973ffffffffffffffffffffffffffffffffffffffff1673ffffffffffffffffffffffffffffffffffffffff168152602001908152602001600020600201601260008a73ffffffffffffffffffffffffffffffffffffffff1673ffffffffffffffffffffffffffffffffffffffff16815260200190815260200160002060030154601260008b73ffffffffffffffffffffffffffffffffffffffff1673ffffffffffffffffffffffffffffffffffffffff16815260200190815260200160002060040154838054600181600116156101000203166002900480601f01602080910402602001604051908101604052809291908181526020018280546001816001161561010002031660029004801561100c5780601f10610fe15761010080835404028352916020019161100c565b820191906000526020600020905b815481529060010190602001808311610fef57829003601f168201915b50505050509350828054600181600116156101000203166002900480601f0160208091040260200160405190810160405280929190818152602001828054600181600116156101000203166002900480156110a85780601f1061107d576101008083540402835291602001916110a8565b820191906000526020600020905b81548152906001019060200180831161108b57829003601f168201915b505050505092509450945094509450945091939590929450565b61020060405190810160405280601090602082028038833980820191505090505090565b828054600181600116156101000203166002900490600052602060002090601f016020900481019282601f1061112757805160ff1916838001178555611155565b82800160010185558215611155579182015b82811115611154578251825591602001919060010190611139565b5b50905061116291906111e6565b5090565b828054600181600116156101000203166002900490600052602060002090601f016020900481019282601f106111a757805160ff19168380011785556111d5565b828001600101855582156111d5579182015b828111156111d45782518255916020019190600101906111b9565b5b5090506111e291906111e6565b5090565b61120891905b808211156112045760008160009055506001016111ec565b5090565b905600a165627a7a72305820fc14c28ff46e6bd962bc15fc408710aa50cece5db696a50732fffe462fbafd850029",
  "source": "pragma solidity ^0.4.17;\n\ncontract Adoption {\n    address[16] public adopters;\n    struct UserStruct {\n        address userAddress;\n        string username;\n        string password;\n        uint time;\n        uint index;\n    }\n\n    struct UserListStruct {\n        address userAddress;\n        uint index;\n    }\n\n    address[] public userAddresses; \n    string[] private usernames;\n    mapping(address => UserStruct) private userStruct;\n\n    mapping(string => UserListStruct) private userListStruct; \n    function adopt(uint petId) public returns (uint) {\n        require(petId>=0 && petId <= 15);\n        adopters[petId] = msg.sender;\n        return petId;\n    }\n\n    function login(string username, string password) public returns (bool) {\n        \n    }\n\n    function findUserAddressByUsername(string _username) public constant returns (address userAddress) {\n        require(isExitUsername(_username));\n        return userListStruct[_username].userAddress;\n    }\n\n\n    //创建用户信息\n    function createUser(address _userAddress, string _password, string _username) public returns (uint index) {\n        require(!isExitUserAddress(_userAddress)); //如果地址已存在则不允许再创建\n\n        userAddresses.push(_userAddress); //地址集合push新地址\n        userStruct[_userAddress] = UserStruct(_userAddress, _username, _password, now, userAddresses.length - 1);\n\n        usernames.push(_username); //用户名集合push新用户\n        userListStruct[_username] = UserListStruct(_userAddress, usernames.length - 1); //用户所对应的地址集合\n\n        return userAddresses.length - 1;\n    }\n\n\n    //获取用户个人信息\n    function findUser(address _userAddress) public constant returns (address userAddresses, string username, string password, uint time, uint index) {\n        require(isExitUserAddress(_userAddress));\n        return (\n            userStruct[_userAddress].userAddress,\n            userStruct[_userAddress].username,\n            userStruct[_userAddress].password,\n            userStruct[_userAddress].time,\n            userStruct[_userAddress].index\n        ); \n    }\n\n    function isExitUsername(string _username) public constant returns(bool) {\n        if (usernames.length == 0) return false;\n        return (keccak256(usernames[userListStruct[_username].index]) == keccak256(_username));\n    }\n\n    function isExitUserAddress(address _userAddress) public constant returns(bool) {\n        if (userAddresses.length == 0) return false;\n        return (userAddresses[userStruct[_userAddress].index] == _userAddress);\n    }\n\n\n    function getAdopters() public view returns (address[16]) {\n        return adopters;\n    }\n}",
  "sourcePath": "/Users/lioder/Documents/git/B-ink-frontend/B-ink-frontend/contracts/Adoption.sol",
  "compiler": {
    "name": "solc",
    "version": "0.4.24+commit.e67f0147.Emscripten.clang"
  },
  "schemaVersion": "2.0.1",
  "updatedAt": "2018-09-06T04:51:39.917Z"
}