{
  "contractName": "Adoption",
  "abi": [
    {
      "constant": true,
      "inputs": [],
      "name": "insurancePart1Len",
      "outputs": [
        {
          "name": "",
          "type": "uint256"
        }
      ],
      "payable": false,
      "stateMutability": "view",
      "type": "function"
    },
    {
      "constant": true,
      "inputs": [
        {
          "name": "",
          "type": "uint256"
        }
      ],
      "name": "userAddresses",
      "outputs": [
        {
          "name": "",
          "type": "address"
        }
      ],
      "payable": false,
      "stateMutability": "view",
      "type": "function"
    },
    {
      "constant": true,
      "inputs": [
        {
          "name": "",
          "type": "uint256"
        }
      ],
      "name": "insurancePart1s",
      "outputs": [
        {
          "name": "wall",
          "type": "string"
        },
        {
          "name": "floor",
          "type": "string"
        },
        {
          "name": "bar",
          "type": "string"
        },
        {
          "name": "paint",
          "type": "string"
        },
        {
          "name": "stone",
          "type": "string"
        },
        {
          "name": "radio1",
          "type": "string"
        },
        {
          "name": "userAddress",
          "type": "address"
        },
        {
          "name": "time",
          "type": "uint256"
        }
      ],
      "payable": false,
      "stateMutability": "view",
      "type": "function"
    },
    {
      "constant": true,
      "inputs": [
        {
          "name": "",
          "type": "uint256"
        }
      ],
      "name": "insurancePart2s",
      "outputs": [
        {
          "name": "city",
          "type": "string"
        },
        {
          "name": "money",
          "type": "uint256"
        },
        {
          "name": "expense",
          "type": "uint256"
        },
        {
          "name": "time",
          "type": "uint256"
        }
      ],
      "payable": false,
      "stateMutability": "view",
      "type": "function"
    },
    {
      "constant": true,
      "inputs": [],
      "name": "insurancePart2Len",
      "outputs": [
        {
          "name": "",
          "type": "uint256"
        }
      ],
      "payable": false,
      "stateMutability": "view",
      "type": "function"
    },
    {
      "constant": true,
      "inputs": [
        {
          "name": "_username",
          "type": "string"
        }
      ],
      "name": "findUserAddressByUsername",
      "outputs": [
        {
          "name": "userAddress",
          "type": "address"
        }
      ],
      "payable": false,
      "stateMutability": "view",
      "type": "function"
    },
    {
      "constant": false,
      "inputs": [
        {
          "name": "_userAddress",
          "type": "address"
        },
        {
          "name": "_password",
          "type": "string"
        },
        {
          "name": "_username",
          "type": "string"
        }
      ],
      "name": "createUser",
      "outputs": [
        {
          "name": "index",
          "type": "uint256"
        }
      ],
      "payable": false,
      "stateMutability": "nonpayable",
      "type": "function"
    },
    {
      "constant": true,
      "inputs": [
        {
          "name": "_userAddress",
          "type": "address"
        }
      ],
      "name": "findUser",
      "outputs": [
        {
          "name": "userAddresses",
          "type": "address"
        },
        {
          "name": "username",
          "type": "string"
        },
        {
          "name": "password",
          "type": "string"
        },
        {
          "name": "time",
          "type": "uint256"
        },
        {
          "name": "index",
          "type": "uint256"
        }
      ],
      "payable": false,
      "stateMutability": "view",
      "type": "function"
    },
    {
      "constant": true,
      "inputs": [
        {
          "name": "_username",
          "type": "string"
        }
      ],
      "name": "isExitUsername",
      "outputs": [
        {
          "name": "",
          "type": "bool"
        }
      ],
      "payable": false,
      "stateMutability": "view",
      "type": "function"
    },
    {
      "constant": true,
      "inputs": [
        {
          "name": "_userAddress",
          "type": "address"
        }
      ],
      "name": "isExitUserAddress",
      "outputs": [
        {
          "name": "",
          "type": "bool"
        }
      ],
      "payable": false,
      "stateMutability": "view",
      "type": "function"
    },
    {
      "constant": false,
      "inputs": [
        {
          "name": "wall",
          "type": "string"
        },
        {
          "name": "floor",
          "type": "string"
        },
        {
          "name": "bar",
          "type": "string"
        },
        {
          "name": "paint",
          "type": "string"
        },
        {
          "name": "stone",
          "type": "string"
        },
        {
          "name": "radio1",
          "type": "string"
        },
        {
          "name": "userAddress",
          "type": "address"
        }
      ],
      "name": "saveInsurancePart1",
      "outputs": [
        {
          "name": "",
          "type": "bool"
        }
      ],
      "payable": false,
      "stateMutability": "nonpayable",
      "type": "function"
    },
    {
      "constant": false,
      "inputs": [
        {
          "name": "city",
          "type": "string"
        },
        {
          "name": "money",
          "type": "uint256"
        },
        {
          "name": "expense",
          "type": "uint256"
        }
      ],
      "name": "saveInsurancePart2",
      "outputs": [
        {
          "name": "",
          "type": "bool"
        }
      ],
      "payable": false,
      "stateMutability": "nonpayable",
      "type": "function"
    }
  ],
  "bytecode": "0x608060405234801561001057600080fd5b50611d05806100206000396000f3006080604052600436106100ba576000357c0100000000000000000000000000000000000000000000000000000000900463ffffffff1680631a41739d146100bf578063295db392146100ea5780634ceb48fd146101935780634ec6dfe414610276578063502c9bd51461030b578063767024ca1461037857806395e6051f14610674578063a83db77f1461072f578063b35c7ec8146107b0578063c4ec3db6146107db578063df9d902414610836578063fcd619841461099f575b600080fd5b3480156100cb57600080fd5b506100d4610b9e565b6040518082815260200191505060405180910390f35b3480156100f657600080fd5b50610151600480360381019080803590602001908201803590602001908080601f0160208091040260200160405190810160405280939291908181526020018383808284378201915050505050509192919290505050610ba4565b604051808273ffffffffffffffffffffffffffffffffffffffff1673ffffffffffffffffffffffffffffffffffffffff16815260200191505060405180910390f35b34801561019f57600080fd5b50610260600480360381019080803573ffffffffffffffffffffffffffffffffffffffff169060200190929190803590602001908201803590602001908080601f0160208091040260200160405190810160405280939291908181526020018383808284378201915050505050509192919290803590602001908201803590602001908080601f0160208091040260200160405190810160405280939291908181526020018383808284378201915050505050509192919290505050610c50565b6040518082815260200191505060405180910390f35b34801561028257600080fd5b506102f1600480360381019080803590602001908201803590602001908080601f01602080910402602001604051908101604052809392919081815260200183838082843782019150505050505091929192908035906020019092919080359060200190929190505050610f2c565b604051808215151515815260200191505060405180910390f35b34801561031757600080fd5b5061033660048036038101908080359060200190929190505050610fd7565b604051808273ffffffffffffffffffffffffffffffffffffffff1673ffffffffffffffffffffffffffffffffffffffff16815260200191505060405180910390f35b34801561038457600080fd5b506103a360048036038101908080359060200190929190505050611015565b604051808060200180602001806020018060200180602001806020018973ffffffffffffffffffffffffffffffffffffffff1673ffffffffffffffffffffffffffffffffffffffff16815260200188815260200187810387528f818151815260200191508051906020019080838360005b8381101561042f578082015181840152602081019050610414565b50505050905090810190601f16801561045c5780820380516001836020036101000a031916815260200191505b5087810386528e818151815260200191508051906020019080838360005b8381101561049557808201518184015260208101905061047a565b50505050905090810190601f1680156104c25780820380516001836020036101000a031916815260200191505b5087810385528d818151815260200191508051906020019080838360005b838110156104fb5780820151818401526020810190506104e0565b50505050905090810190601f1680156105285780820380516001836020036101000a031916815260200191505b5087810384528c818151815260200191508051906020019080838360005b83811015610561578082015181840152602081019050610546565b50505050905090810190601f16801561058e5780820380516001836020036101000a031916815260200191505b5087810383528b818151815260200191508051906020019080838360005b838110156105c75780820151818401526020810190506105ac565b50505050905090810190601f1680156105f45780820380516001836020036101000a031916815260200191505b5087810382528a818151815260200191508051906020019080838360005b8381101561062d578082015181840152602081019050610612565b50505050905090810190601f16801561065a5780820380516001836020036101000a031916815260200191505b509e50505050505050505050505050505060405180910390f35b34801561068057600080fd5b5061069f6004803603810190808035906020019092919050505061141c565b6040518080602001858152602001848152602001838152602001828103825286818151815260200191508051906020019080838360005b838110156106f15780820151818401526020810190506106d6565b50505050905090810190601f16801561071e5780820380516001836020036101000a031916815260200191505b509550505050505060405180910390f35b34801561073b57600080fd5b50610796600480360381019080803590602001908201803590602001908080601f01602080910402602001604051908101604052809392919081815260200183838082843782019150505050505091929192905050506114f3565b604051808215151515815260200191505060405180910390f35b3480156107bc57600080fd5b506107c561166e565b6040518082815260200191505060405180910390f35b3480156107e757600080fd5b5061081c600480360381019080803573ffffffffffffffffffffffffffffffffffffffff169060200190929190505050611674565b604051808215151515815260200191505060405180910390f35b34801561084257600080fd5b50610877600480360381019080803573ffffffffffffffffffffffffffffffffffffffff16906020019092919050505061173e565b604051808673ffffffffffffffffffffffffffffffffffffffff1673ffffffffffffffffffffffffffffffffffffffff1681526020018060200180602001858152602001848152602001838103835287818151815260200191508051906020019080838360005b838110156108f95780820151818401526020810190506108de565b50505050905090810190601f1680156109265780820380516001836020036101000a031916815260200191505b50838103825286818151815260200191508051906020019080838360005b8381101561095f578082015181840152602081019050610944565b50505050905090810190601f16801561098c5780820380516001836020036101000a031916815260200191505b5097505050505050505060405180910390f35b3480156109ab57600080fd5b50610b84600480360381019080803590602001908201803590602001908080601f0160208091040260200160405190810160405280939291908181526020018383808284378201915050505050509192919290803590602001908201803590602001908080601f0160208091040260200160405190810160405280939291908181526020018383808284378201915050505050509192919290803590602001908201803590602001908080601f0160208091040260200160405190810160405280939291908181526020018383808284378201915050505050509192919290803590602001908201803590602001908080601f0160208091040260200160405190810160405280939291908181526020018383808284378201915050505050509192919290803590602001908201803590602001908080601f0160208091040260200160405190810160405280939291908181526020018383808284378201915050505050509192919290803590602001908201803590602001908080601f0160208091040260200160405190810160405280939291908181526020018383808284378201915050505050509192919290803573ffffffffffffffffffffffffffffffffffffffff169060200190929190505050611a12565b604051808215151515815260200191505060405180910390f35b60045481565b6000610baf826114f3565b1515610bba57600080fd5b6008826040518082805190602001908083835b602083101515610bf25780518252602082019150602081019050602083039250610bcd565b6001836020036101000a038019825116818451168082178552505050505050905001915050908152602001604051809103902060000160009054906101000a900473ffffffffffffffffffffffffffffffffffffffff169050919050565b6000610c5b84611674565b151515610c6757600080fd5b60008490806001815401808255809150509060018203906000526020600020016000909192909190916101000a81548173ffffffffffffffffffffffffffffffffffffffff021916908373ffffffffffffffffffffffffffffffffffffffff1602179055505060a0604051908101604052808573ffffffffffffffffffffffffffffffffffffffff168152602001838152602001848152602001428152602001600160008054905003815250600660008673ffffffffffffffffffffffffffffffffffffffff1673ffffffffffffffffffffffffffffffffffffffff16815260200190815260200160002060008201518160000160006101000a81548173ffffffffffffffffffffffffffffffffffffffff021916908373ffffffffffffffffffffffffffffffffffffffff1602179055506020820151816001019080519060200190610db5929190611bb4565b506040820151816002019080519060200190610dd2929190611bb4565b5060608201518160030155608082015181600401559050506001829080600181540180825580915050906001820390600052602060002001600090919290919091509080519060200190610e27929190611c34565b505060408051908101604052808573ffffffffffffffffffffffffffffffffffffffff16815260200160018080549050038152506008836040518082805190602001908083835b602083101515610e935780518252602082019150602081019050602083039250610e6e565b6001836020036101000a038019825116818451168082178552505050505050905001915050908152602001604051809103902060008201518160000160006101000a81548173ffffffffffffffffffffffffffffffffffffffff021916908373ffffffffffffffffffffffffffffffffffffffff1602179055506020820151816001015590505060016000805490500390509392505050565b6000600360806040519081016040528086815260200185815260200184815260200142815250908060018154018082558091505090600182039060005260206000209060040201600090919290919091506000820151816000019080519060200190610f99929190611bb4565b506020820151816001015560408201518160020155606082015181600301555050506001600560008282540192505081905550600190509392505050565b600081815481101515610fe657fe5b906000526020600020016000915054906101000a900473ffffffffffffffffffffffffffffffffffffffff1681565b60028181548110151561102457fe5b9060005260206000209060080201600091509050806000018054600181600116156101000203166002900480601f0160208091040260200160405190810160405280929190818152602001828054600181600116156101000203166002900480156110d05780601f106110a5576101008083540402835291602001916110d0565b820191906000526020600020905b8154815290600101906020018083116110b357829003601f168201915b505050505090806001018054600181600116156101000203166002900480601f01602080910402602001604051908101604052809291908181526020018280546001816001161561010002031660029004801561116e5780601f106111435761010080835404028352916020019161116e565b820191906000526020600020905b81548152906001019060200180831161115157829003601f168201915b505050505090806002018054600181600116156101000203166002900480601f01602080910402602001604051908101604052809291908181526020018280546001816001161561010002031660029004801561120c5780601f106111e15761010080835404028352916020019161120c565b820191906000526020600020905b8154815290600101906020018083116111ef57829003601f168201915b505050505090806003018054600181600116156101000203166002900480601f0160208091040260200160405190810160405280929190818152602001828054600181600116156101000203166002900480156112aa5780601f1061127f576101008083540402835291602001916112aa565b820191906000526020600020905b81548152906001019060200180831161128d57829003601f168201915b505050505090806004018054600181600116156101000203166002900480601f0160208091040260200160405190810160405280929190818152602001828054600181600116156101000203166002900480156113485780601f1061131d57610100808354040283529160200191611348565b820191906000526020600020905b81548152906001019060200180831161132b57829003601f168201915b505050505090806005018054600181600116156101000203166002900480601f0160208091040260200160405190810160405280929190818152602001828054600181600116156101000203166002900480156113e65780601f106113bb576101008083540402835291602001916113e6565b820191906000526020600020905b8154815290600101906020018083116113c957829003601f168201915b5050505050908060060160009054906101000a900473ffffffffffffffffffffffffffffffffffffffff16908060070154905088565b60038181548110151561142b57fe5b9060005260206000209060040201600091509050806000018054600181600116156101000203166002900480601f0160208091040260200160405190810160405280929190818152602001828054600181600116156101000203166002900480156114d75780601f106114ac576101008083540402835291602001916114d7565b820191906000526020600020905b8154815290600101906020018083116114ba57829003601f168201915b5050505050908060010154908060020154908060030154905084565b600080600180549050141561150b5760009050611669565b816040518082805190602001908083835b602083101515611541578051825260208201915060208101905060208303925061151c565b6001836020036101000a03801982511681845116808217855250505050505090500191505060405180910390206000191660016008846040518082805190602001908083835b6020831015156115ac5780518252602082019150602081019050602083039250611587565b6001836020036101000a0380198251168184511680821785525050505050509050019150509081526020016040518091039020600101548154811015156115ef57fe5b9060005260206000200160405180828054600181600116156101000203166002900480156116545780601f10611632576101008083540402835291820191611654565b820191906000526020600020905b815481529060010190602001808311611640575b50509150506040518091039020600019161490505b919050565b60055481565b600080600080549050141561168c5760009050611739565b8173ffffffffffffffffffffffffffffffffffffffff166000600660008573ffffffffffffffffffffffffffffffffffffffff1673ffffffffffffffffffffffffffffffffffffffff168152602001908152602001600020600401548154811015156116f457fe5b9060005260206000200160009054906101000a900473ffffffffffffffffffffffffffffffffffffffff1673ffffffffffffffffffffffffffffffffffffffff161490505b919050565b600060608060008061174f86611674565b151561175a57600080fd5b600660008773ffffffffffffffffffffffffffffffffffffffff1673ffffffffffffffffffffffffffffffffffffffff16815260200190815260200160002060000160009054906101000a900473ffffffffffffffffffffffffffffffffffffffff16600660008873ffffffffffffffffffffffffffffffffffffffff1673ffffffffffffffffffffffffffffffffffffffff168152602001908152602001600020600101600660008973ffffffffffffffffffffffffffffffffffffffff1673ffffffffffffffffffffffffffffffffffffffff168152602001908152602001600020600201600660008a73ffffffffffffffffffffffffffffffffffffffff1673ffffffffffffffffffffffffffffffffffffffff16815260200190815260200160002060030154600660008b73ffffffffffffffffffffffffffffffffffffffff1673ffffffffffffffffffffffffffffffffffffffff16815260200190815260200160002060040154838054600181600116156101000203166002900480601f01602080910402602001604051908101604052809291908181526020018280546001816001161561010002031660029004801561195c5780601f106119315761010080835404028352916020019161195c565b820191906000526020600020905b81548152906001019060200180831161193f57829003601f168201915b50505050509350828054600181600116156101000203166002900480601f0160208091040260200160405190810160405280929190818152602001828054600181600116156101000203166002900480156119f85780601f106119cd576101008083540402835291602001916119f8565b820191906000526020600020905b8154815290600101906020018083116119db57829003601f168201915b505050505092509450945094509450945091939590929450565b60006002610100604051908101604052808a81526020018981526020018881526020018781526020018681526020018581526020018473ffffffffffffffffffffffffffffffffffffffff16815260200142815250908060018154018082558091505090600182039060005260206000209060080201600090919290919091506000820151816000019080519060200190611aae929190611bb4565b506020820151816001019080519060200190611acb929190611bb4565b506040820151816002019080519060200190611ae8929190611bb4565b506060820151816003019080519060200190611b05929190611bb4565b506080820151816004019080519060200190611b22929190611bb4565b5060a0820151816005019080519060200190611b3f929190611bb4565b5060c08201518160060160006101000a81548173ffffffffffffffffffffffffffffffffffffffff021916908373ffffffffffffffffffffffffffffffffffffffff16021790555060e08201518160070155505050600160046000828254019250508190555060019050979650505050505050565b828054600181600116156101000203166002900490600052602060002090601f016020900481019282601f10611bf557805160ff1916838001178555611c23565b82800160010185558215611c23579182015b82811115611c22578251825591602001919060010190611c07565b5b509050611c309190611cb4565b5090565b828054600181600116156101000203166002900490600052602060002090601f016020900481019282601f10611c7557805160ff1916838001178555611ca3565b82800160010185558215611ca3579182015b82811115611ca2578251825591602001919060010190611c87565b5b509050611cb09190611cb4565b5090565b611cd691905b80821115611cd2576000816000905550600101611cba565b5090565b905600a165627a7a72305820871660f7e24ebe4fa41bbf4aae69db63c7cf7c282db332bbaa2a0499083174a60029",
  "source": "pragma solidity ^0.4.17;\n\ncontract Adoption {\n    struct InsurancePart1 {\n        string wall;\n        string floor;\n        string bar;\n        string paint;\n        string stone;\n        string radio1;\n        address userAddress;\n        uint time;\n    }\n\n    struct InsurancePart2 {\n        string city;\n        uint money;\n        uint expense;\n        uint time;\n    }\n    \n    struct UserStruct {\n        address userAddress;\n        string username;\n        string password;\n        uint time;\n        uint index;\n    }\n\n    struct UserListStruct {\n        address userAddress;\n        uint index;\n    }\n   \n\n    address[] public userAddresses;\n    string[] private usernames;\n    InsurancePart1[] public insurancePart1s;\n    InsurancePart2[] public insurancePart2s;\n    uint public insurancePart1Len;\n    uint public insurancePart2Len;\n    mapping(address => UserStruct) private userStruct;\n    mapping(address => uint[]) private insuranceMap;\n    mapping(string => UserListStruct) private userListStruct;\n\n    function findUserAddressByUsername(string _username) public constant returns (address userAddress) {\n        require(isExitUsername(_username));\n        return userListStruct[_username].userAddress;\n    }\n\n\n    //创建用户信息\n    function createUser(address _userAddress, string _password, string _username) public returns (uint index) {\n        require(!isExitUserAddress(_userAddress)); //如果地址已存在则不允许再创建\n\n        userAddresses.push(_userAddress); //地址集合push新地址\n        userStruct[_userAddress] = UserStruct(_userAddress, _username, _password, now, userAddresses.length - 1);\n\n        usernames.push(_username); //用户名集合push新用户\n        userListStruct[_username] = UserListStruct(_userAddress, usernames.length - 1); //用户所对应的地址集合\n\n        return userAddresses.length - 1;\n    }\n\n\n    //获取用户个人信息\n    function findUser(address _userAddress) public constant returns (address userAddresses, string username, string password, uint time, uint index) {\n        require(isExitUserAddress(_userAddress));\n        return (\n            userStruct[_userAddress].userAddress,\n            userStruct[_userAddress].username,\n            userStruct[_userAddress].password,\n            userStruct[_userAddress].time,\n            userStruct[_userAddress].index\n        );\n    }\n\n    function isExitUsername(string _username) public constant returns(bool) {\n        if (usernames.length == 0) return false;\n        return (keccak256(usernames[userListStruct[_username].index]) == keccak256(_username));\n    }\n\n    function isExitUserAddress(address _userAddress) public constant returns(bool) {\n        if (userAddresses.length == 0) return false;\n        return (userAddresses[userStruct[_userAddress].index] == _userAddress);\n    }\n\n    function saveInsurancePart1( string wall, string floor, string bar, string paint, string stone, string radio1, address userAddress)\n     public returns(bool){\n        insurancePart1s.push(InsurancePart1(wall, floor, bar, paint, stone, radio1, userAddress, now));\n        insurancePart1Len += 1;\n        return true;\n    }\n\n    function saveInsurancePart2(string city,uint money, uint expense)\n     public returns(bool){\n        insurancePart2s.push(InsurancePart2(city,money, expense, now));\n        insurancePart2Len += 1;\n        return true;\n    }\n    \n\n}",
  "sourcePath": "/Users/lioder/Documents/git/B-ink-frontend/B-ink-frontend/contracts/Adoption.sol",
  "compiler": {
    "name": "solc",
    "version": "0.4.24+commit.e67f0147.Emscripten.clang"
  },
  "schemaVersion": "2.0.1",
  "updatedAt": "2018-09-07T16:10:57.250Z"
}