{
  "contractName": "Adoption",
  "abi": [
    {
      "constant": true,
      "inputs": [],
      "name": "insurancePart1Len",
      "outputs": [
        {
          "name": "",
          "type": "uint256"
        }
      ],
      "payable": false,
      "stateMutability": "view",
      "type": "function"
    },
    {
      "constant": true,
      "inputs": [
        {
          "name": "",
          "type": "uint256"
        }
      ],
      "name": "userAddresses",
      "outputs": [
        {
          "name": "",
          "type": "address"
        }
      ],
      "payable": false,
      "stateMutability": "view",
      "type": "function"
    },
    {
      "constant": true,
      "inputs": [
        {
          "name": "",
          "type": "uint256"
        }
      ],
      "name": "insurancePart1s",
      "outputs": [
        {
          "name": "wall",
          "type": "string"
        },
        {
          "name": "floor",
          "type": "string"
        },
        {
          "name": "bar",
          "type": "string"
        },
        {
          "name": "paint",
          "type": "string"
        },
        {
          "name": "stone",
          "type": "string"
        },
        {
          "name": "radio1",
          "type": "string"
        },
        {
          "name": "userAddress",
          "type": "address"
        },
        {
          "name": "time",
          "type": "uint256"
        }
      ],
      "payable": false,
      "stateMutability": "view",
      "type": "function"
    },
    {
      "constant": true,
      "inputs": [
        {
          "name": "",
          "type": "uint256"
        }
      ],
      "name": "insurancePart2s",
      "outputs": [
        {
          "name": "city",
          "type": "string"
        },
        {
          "name": "money",
          "type": "uint256"
        },
        {
          "name": "expense",
          "type": "uint256"
        },
        {
          "name": "time",
          "type": "uint256"
        }
      ],
      "payable": false,
      "stateMutability": "view",
      "type": "function"
    },
    {
      "constant": true,
      "inputs": [],
      "name": "insurancePart2Len",
      "outputs": [
        {
          "name": "",
          "type": "uint256"
        }
      ],
      "payable": false,
      "stateMutability": "view",
      "type": "function"
    },
    {
      "constant": false,
      "inputs": [
        {
          "name": "username",
          "type": "string"
        },
        {
          "name": "password",
          "type": "string"
        }
      ],
      "name": "login",
      "outputs": [
        {
          "name": "",
          "type": "bool"
        }
      ],
      "payable": false,
      "stateMutability": "nonpayable",
      "type": "function"
    },
    {
      "constant": true,
      "inputs": [
        {
          "name": "_username",
          "type": "string"
        }
      ],
      "name": "findUserAddressByUsername",
      "outputs": [
        {
          "name": "userAddress",
          "type": "address"
        }
      ],
      "payable": false,
      "stateMutability": "view",
      "type": "function"
    },
    {
      "constant": false,
      "inputs": [
        {
          "name": "_userAddress",
          "type": "address"
        },
        {
          "name": "_password",
          "type": "string"
        },
        {
          "name": "_username",
          "type": "string"
        }
      ],
      "name": "createUser",
      "outputs": [
        {
          "name": "index",
          "type": "uint256"
        }
      ],
      "payable": false,
      "stateMutability": "nonpayable",
      "type": "function"
    },
    {
      "constant": true,
      "inputs": [
        {
          "name": "_userAddress",
          "type": "address"
        }
      ],
      "name": "findUser",
      "outputs": [
        {
          "name": "userAddresses",
          "type": "address"
        },
        {
          "name": "username",
          "type": "string"
        },
        {
          "name": "password",
          "type": "string"
        },
        {
          "name": "time",
          "type": "uint256"
        },
        {
          "name": "index",
          "type": "uint256"
        }
      ],
      "payable": false,
      "stateMutability": "view",
      "type": "function"
    },
    {
      "constant": true,
      "inputs": [
        {
          "name": "_username",
          "type": "string"
        }
      ],
      "name": "isExitUsername",
      "outputs": [
        {
          "name": "",
          "type": "bool"
        }
      ],
      "payable": false,
      "stateMutability": "view",
      "type": "function"
    },
    {
      "constant": true,
      "inputs": [
        {
          "name": "_userAddress",
          "type": "address"
        }
      ],
      "name": "isExitUserAddress",
      "outputs": [
        {
          "name": "",
          "type": "bool"
        }
      ],
      "payable": false,
      "stateMutability": "view",
      "type": "function"
    },
    {
      "constant": false,
      "inputs": [
        {
          "name": "wall",
          "type": "string"
        },
        {
          "name": "floor",
          "type": "string"
        },
        {
          "name": "bar",
          "type": "string"
        },
        {
          "name": "paint",
          "type": "string"
        },
        {
          "name": "stone",
          "type": "string"
        },
        {
          "name": "radio1",
          "type": "string"
        },
        {
          "name": "userAddress",
          "type": "address"
        }
      ],
      "name": "saveInsurancePart1",
      "outputs": [
        {
          "name": "",
          "type": "bool"
        }
      ],
      "payable": false,
      "stateMutability": "nonpayable",
      "type": "function"
    },
    {
      "constant": false,
      "inputs": [
        {
          "name": "city",
          "type": "string"
        },
        {
          "name": "money",
          "type": "uint256"
        },
        {
          "name": "expense",
          "type": "uint256"
        }
      ],
      "name": "saveInsurancePart2",
      "outputs": [
        {
          "name": "",
          "type": "bool"
        }
      ],
      "payable": false,
      "stateMutability": "nonpayable",
      "type": "function"
    }
  ],
  "bytecode": "0x608060405234801561001057600080fd5b50611ddf806100206000396000f3006080604052600436106100c5576000357c0100000000000000000000000000000000000000000000000000000000900463ffffffff1680631a41739d146100ca578063295db392146100f55780634ceb48fd1461019e5780634ec6dfe414610281578063502c9bd51461031657806358467dbc14610383578063767024ca1461044a57806395e6051f14610746578063a83db77f14610801578063b35c7ec814610882578063c4ec3db6146108ad578063df9d902414610908578063fcd6198414610a71575b600080fd5b3480156100d657600080fd5b506100df610c70565b6040518082815260200191505060405180910390f35b34801561010157600080fd5b5061015c600480360381019080803590602001908201803590602001908080601f0160208091040260200160405190810160405280939291908181526020018383808284378201915050505050509192919290505050610c76565b604051808273ffffffffffffffffffffffffffffffffffffffff1673ffffffffffffffffffffffffffffffffffffffff16815260200191505060405180910390f35b3480156101aa57600080fd5b5061026b600480360381019080803573ffffffffffffffffffffffffffffffffffffffff169060200190929190803590602001908201803590602001908080601f0160208091040260200160405190810160405280939291908181526020018383808284378201915050505050509192919290803590602001908201803590602001908080601f0160208091040260200160405190810160405280939291908181526020018383808284378201915050505050509192919290505050610d22565b6040518082815260200191505060405180910390f35b34801561028d57600080fd5b506102fc600480360381019080803590602001908201803590602001908080601f01602080910402602001604051908101604052809392919081815260200183838082843782019150505050505091929192908035906020019092919080359060200190929190505050610ffe565b604051808215151515815260200191505060405180910390f35b34801561032257600080fd5b50610341600480360381019080803590602001909291905050506110a9565b604051808273ffffffffffffffffffffffffffffffffffffffff1673ffffffffffffffffffffffffffffffffffffffff16815260200191505060405180910390f35b34801561038f57600080fd5b50610430600480360381019080803590602001908201803590602001908080601f0160208091040260200160405190810160405280939291908181526020018383808284378201915050505050509192919290803590602001908201803590602001908080601f01602080910402602001604051908101604052809392919081815260200183838082843782019150505050505091929192905050506110e7565b604051808215151515815260200191505060405180910390f35b34801561045657600080fd5b50610475600480360381019080803590602001909291905050506110ef565b604051808060200180602001806020018060200180602001806020018973ffffffffffffffffffffffffffffffffffffffff1673ffffffffffffffffffffffffffffffffffffffff16815260200188815260200187810387528f818151815260200191508051906020019080838360005b838110156105015780820151818401526020810190506104e6565b50505050905090810190601f16801561052e5780820380516001836020036101000a031916815260200191505b5087810386528e818151815260200191508051906020019080838360005b8381101561056757808201518184015260208101905061054c565b50505050905090810190601f1680156105945780820380516001836020036101000a031916815260200191505b5087810385528d818151815260200191508051906020019080838360005b838110156105cd5780820151818401526020810190506105b2565b50505050905090810190601f1680156105fa5780820380516001836020036101000a031916815260200191505b5087810384528c818151815260200191508051906020019080838360005b83811015610633578082015181840152602081019050610618565b50505050905090810190601f1680156106605780820380516001836020036101000a031916815260200191505b5087810383528b818151815260200191508051906020019080838360005b8381101561069957808201518184015260208101905061067e565b50505050905090810190601f1680156106c65780820380516001836020036101000a031916815260200191505b5087810382528a818151815260200191508051906020019080838360005b838110156106ff5780820151818401526020810190506106e4565b50505050905090810190601f16801561072c5780820380516001836020036101000a031916815260200191505b509e50505050505050505050505050505060405180910390f35b34801561075257600080fd5b50610771600480360381019080803590602001909291905050506114f6565b6040518080602001858152602001848152602001838152602001828103825286818151815260200191508051906020019080838360005b838110156107c35780820151818401526020810190506107a8565b50505050905090810190601f1680156107f05780820380516001836020036101000a031916815260200191505b509550505050505060405180910390f35b34801561080d57600080fd5b50610868600480360381019080803590602001908201803590602001908080601f01602080910402602001604051908101604052809392919081815260200183838082843782019150505050505091929192905050506115cd565b604051808215151515815260200191505060405180910390f35b34801561088e57600080fd5b50610897611748565b6040518082815260200191505060405180910390f35b3480156108b957600080fd5b506108ee600480360381019080803573ffffffffffffffffffffffffffffffffffffffff16906020019092919050505061174e565b604051808215151515815260200191505060405180910390f35b34801561091457600080fd5b50610949600480360381019080803573ffffffffffffffffffffffffffffffffffffffff169060200190929190505050611818565b604051808673ffffffffffffffffffffffffffffffffffffffff1673ffffffffffffffffffffffffffffffffffffffff1681526020018060200180602001858152602001848152602001838103835287818151815260200191508051906020019080838360005b838110156109cb5780820151818401526020810190506109b0565b50505050905090810190601f1680156109f85780820380516001836020036101000a031916815260200191505b50838103825286818151815260200191508051906020019080838360005b83811015610a31578082015181840152602081019050610a16565b50505050905090810190601f168015610a5e5780820380516001836020036101000a031916815260200191505b5097505050505050505060405180910390f35b348015610a7d57600080fd5b50610c56600480360381019080803590602001908201803590602001908080601f0160208091040260200160405190810160405280939291908181526020018383808284378201915050505050509192919290803590602001908201803590602001908080601f0160208091040260200160405190810160405280939291908181526020018383808284378201915050505050509192919290803590602001908201803590602001908080601f0160208091040260200160405190810160405280939291908181526020018383808284378201915050505050509192919290803590602001908201803590602001908080601f0160208091040260200160405190810160405280939291908181526020018383808284378201915050505050509192919290803590602001908201803590602001908080601f0160208091040260200160405190810160405280939291908181526020018383808284378201915050505050509192919290803590602001908201803590602001908080601f0160208091040260200160405190810160405280939291908181526020018383808284378201915050505050509192919290803573ffffffffffffffffffffffffffffffffffffffff169060200190929190505050611aec565b604051808215151515815260200191505060405180910390f35b60045481565b6000610c81826115cd565b1515610c8c57600080fd5b6008826040518082805190602001908083835b602083101515610cc45780518252602082019150602081019050602083039250610c9f565b6001836020036101000a038019825116818451168082178552505050505050905001915050908152602001604051809103902060000160009054906101000a900473ffffffffffffffffffffffffffffffffffffffff169050919050565b6000610d2d8461174e565b151515610d3957600080fd5b60008490806001815401808255809150509060018203906000526020600020016000909192909190916101000a81548173ffffffffffffffffffffffffffffffffffffffff021916908373ffffffffffffffffffffffffffffffffffffffff1602179055505060a0604051908101604052808573ffffffffffffffffffffffffffffffffffffffff168152602001838152602001848152602001428152602001600160008054905003815250600660008673ffffffffffffffffffffffffffffffffffffffff1673ffffffffffffffffffffffffffffffffffffffff16815260200190815260200160002060008201518160000160006101000a81548173ffffffffffffffffffffffffffffffffffffffff021916908373ffffffffffffffffffffffffffffffffffffffff1602179055506020820151816001019080519060200190610e87929190611c8e565b506040820151816002019080519060200190610ea4929190611c8e565b5060608201518160030155608082015181600401559050506001829080600181540180825580915050906001820390600052602060002001600090919290919091509080519060200190610ef9929190611d0e565b505060408051908101604052808573ffffffffffffffffffffffffffffffffffffffff16815260200160018080549050038152506008836040518082805190602001908083835b602083101515610f655780518252602082019150602081019050602083039250610f40565b6001836020036101000a038019825116818451168082178552505050505050905001915050908152602001604051809103902060008201518160000160006101000a81548173ffffffffffffffffffffffffffffffffffffffff021916908373ffffffffffffffffffffffffffffffffffffffff1602179055506020820151816001015590505060016000805490500390509392505050565b600060036080604051908101604052808681526020018581526020018481526020014281525090806001815401808255809150509060018203906000526020600020906004020160009091929091909150600082015181600001908051906020019061106b929190611c8e565b506020820151816001015560408201518160020155606082015181600301555050506001600560008282540192505081905550600190509392505050565b6000818154811015156110b857fe5b906000526020600020016000915054906101000a900473ffffffffffffffffffffffffffffffffffffffff1681565b600092915050565b6002818154811015156110fe57fe5b9060005260206000209060080201600091509050806000018054600181600116156101000203166002900480601f0160208091040260200160405190810160405280929190818152602001828054600181600116156101000203166002900480156111aa5780601f1061117f576101008083540402835291602001916111aa565b820191906000526020600020905b81548152906001019060200180831161118d57829003601f168201915b505050505090806001018054600181600116156101000203166002900480601f0160208091040260200160405190810160405280929190818152602001828054600181600116156101000203166002900480156112485780601f1061121d57610100808354040283529160200191611248565b820191906000526020600020905b81548152906001019060200180831161122b57829003601f168201915b505050505090806002018054600181600116156101000203166002900480601f0160208091040260200160405190810160405280929190818152602001828054600181600116156101000203166002900480156112e65780601f106112bb576101008083540402835291602001916112e6565b820191906000526020600020905b8154815290600101906020018083116112c957829003601f168201915b505050505090806003018054600181600116156101000203166002900480601f0160208091040260200160405190810160405280929190818152602001828054600181600116156101000203166002900480156113845780601f1061135957610100808354040283529160200191611384565b820191906000526020600020905b81548152906001019060200180831161136757829003601f168201915b505050505090806004018054600181600116156101000203166002900480601f0160208091040260200160405190810160405280929190818152602001828054600181600116156101000203166002900480156114225780601f106113f757610100808354040283529160200191611422565b820191906000526020600020905b81548152906001019060200180831161140557829003601f168201915b505050505090806005018054600181600116156101000203166002900480601f0160208091040260200160405190810160405280929190818152602001828054600181600116156101000203166002900480156114c05780601f10611495576101008083540402835291602001916114c0565b820191906000526020600020905b8154815290600101906020018083116114a357829003601f168201915b5050505050908060060160009054906101000a900473ffffffffffffffffffffffffffffffffffffffff16908060070154905088565b60038181548110151561150557fe5b9060005260206000209060040201600091509050806000018054600181600116156101000203166002900480601f0160208091040260200160405190810160405280929190818152602001828054600181600116156101000203166002900480156115b15780601f10611586576101008083540402835291602001916115b1565b820191906000526020600020905b81548152906001019060200180831161159457829003601f168201915b5050505050908060010154908060020154908060030154905084565b60008060018054905014156115e55760009050611743565b816040518082805190602001908083835b60208310151561161b57805182526020820191506020810190506020830392506115f6565b6001836020036101000a03801982511681845116808217855250505050505090500191505060405180910390206000191660016008846040518082805190602001908083835b6020831015156116865780518252602082019150602081019050602083039250611661565b6001836020036101000a0380198251168184511680821785525050505050509050019150509081526020016040518091039020600101548154811015156116c957fe5b90600052602060002001604051808280546001816001161561010002031660029004801561172e5780601f1061170c57610100808354040283529182019161172e565b820191906000526020600020905b81548152906001019060200180831161171a575b50509150506040518091039020600019161490505b919050565b60055481565b60008060008054905014156117665760009050611813565b8173ffffffffffffffffffffffffffffffffffffffff166000600660008573ffffffffffffffffffffffffffffffffffffffff1673ffffffffffffffffffffffffffffffffffffffff168152602001908152602001600020600401548154811015156117ce57fe5b9060005260206000200160009054906101000a900473ffffffffffffffffffffffffffffffffffffffff1673ffffffffffffffffffffffffffffffffffffffff161490505b919050565b60006060806000806118298661174e565b151561183457600080fd5b600660008773ffffffffffffffffffffffffffffffffffffffff1673ffffffffffffffffffffffffffffffffffffffff16815260200190815260200160002060000160009054906101000a900473ffffffffffffffffffffffffffffffffffffffff16600660008873ffffffffffffffffffffffffffffffffffffffff1673ffffffffffffffffffffffffffffffffffffffff168152602001908152602001600020600101600660008973ffffffffffffffffffffffffffffffffffffffff1673ffffffffffffffffffffffffffffffffffffffff168152602001908152602001600020600201600660008a73ffffffffffffffffffffffffffffffffffffffff1673ffffffffffffffffffffffffffffffffffffffff16815260200190815260200160002060030154600660008b73ffffffffffffffffffffffffffffffffffffffff1673ffffffffffffffffffffffffffffffffffffffff16815260200190815260200160002060040154838054600181600116156101000203166002900480601f016020809104026020016040519081016040528092919081815260200182805460018160011615610100020316600290048015611a365780601f10611a0b57610100808354040283529160200191611a36565b820191906000526020600020905b815481529060010190602001808311611a1957829003601f168201915b50505050509350828054600181600116156101000203166002900480601f016020809104026020016040519081016040528092919081815260200182805460018160011615610100020316600290048015611ad25780601f10611aa757610100808354040283529160200191611ad2565b820191906000526020600020905b815481529060010190602001808311611ab557829003601f168201915b505050505092509450945094509450945091939590929450565b60006002610100604051908101604052808a81526020018981526020018881526020018781526020018681526020018581526020018473ffffffffffffffffffffffffffffffffffffffff16815260200142815250908060018154018082558091505090600182039060005260206000209060080201600090919290919091506000820151816000019080519060200190611b88929190611c8e565b506020820151816001019080519060200190611ba5929190611c8e565b506040820151816002019080519060200190611bc2929190611c8e565b506060820151816003019080519060200190611bdf929190611c8e565b506080820151816004019080519060200190611bfc929190611c8e565b5060a0820151816005019080519060200190611c19929190611c8e565b5060c08201518160060160006101000a81548173ffffffffffffffffffffffffffffffffffffffff021916908373ffffffffffffffffffffffffffffffffffffffff16021790555060e08201518160070155505050600160046000828254019250508190555060019050979650505050505050565b828054600181600116156101000203166002900490600052602060002090601f016020900481019282601f10611ccf57805160ff1916838001178555611cfd565b82800160010185558215611cfd579182015b82811115611cfc578251825591602001919060010190611ce1565b5b509050611d0a9190611d8e565b5090565b828054600181600116156101000203166002900490600052602060002090601f016020900481019282601f10611d4f57805160ff1916838001178555611d7d565b82800160010185558215611d7d579182015b82811115611d7c578251825591602001919060010190611d61565b5b509050611d8a9190611d8e565b5090565b611db091905b80821115611dac576000816000905550600101611d94565b5090565b905600a165627a7a723058203d1e33ca7911f055c43159b6748d6b42db59a742be23cc1f6f346d33e9d2e9140029",
  "source": "pragma solidity ^0.4.17;\n\ncontract Adoption {\n    struct InsurancePart1 {\n        string wall;\n        string floor;\n        string bar;\n        string paint;\n        string stone;\n        string radio1;\n        address userAddress;\n        uint time;\n    }\n\n    struct InsurancePart2 {\n        string city;\n        uint money;\n        uint expense;\n        uint time;\n    }\n    \n    struct UserStruct {\n        address userAddress;\n        string username;\n        string password;\n        uint time;\n        uint index;\n    }\n\n    struct UserListStruct {\n        address userAddress;\n        uint index;\n    }\n   \n\n    address[] public userAddresses;\n    string[] private usernames;\n    InsurancePart1[] public insurancePart1s;\n    InsurancePart2[] public insurancePart2s;\n    uint public insurancePart1Len;\n    uint public insurancePart2Len;\n    mapping(address => UserStruct) private userStruct;\n    mapping(address => uint[]) private insuranceMap;\n    mapping(string => UserListStruct) private userListStruct;\n\n    function login(string username, string password) public returns (bool) {\n\n    }\n\n    function findUserAddressByUsername(string _username) public constant returns (address userAddress) {\n        require(isExitUsername(_username));\n        return userListStruct[_username].userAddress;\n    }\n\n\n    //创建用户信息\n    function createUser(address _userAddress, string _password, string _username) public returns (uint index) {\n        require(!isExitUserAddress(_userAddress)); //如果地址已存在则不允许再创建\n\n        userAddresses.push(_userAddress); //地址集合push新地址\n        userStruct[_userAddress] = UserStruct(_userAddress, _username, _password, now, userAddresses.length - 1);\n\n        usernames.push(_username); //用户名集合push新用户\n        userListStruct[_username] = UserListStruct(_userAddress, usernames.length - 1); //用户所对应的地址集合\n\n        return userAddresses.length - 1;\n    }\n\n\n    //获取用户个人信息\n    function findUser(address _userAddress) public constant returns (address userAddresses, string username, string password, uint time, uint index) {\n        require(isExitUserAddress(_userAddress));\n        return (\n            userStruct[_userAddress].userAddress,\n            userStruct[_userAddress].username,\n            userStruct[_userAddress].password,\n            userStruct[_userAddress].time,\n            userStruct[_userAddress].index\n        );\n    }\n\n    function isExitUsername(string _username) public constant returns(bool) {\n        if (usernames.length == 0) return false;\n        return (keccak256(usernames[userListStruct[_username].index]) == keccak256(_username));\n    }\n\n    function isExitUserAddress(address _userAddress) public constant returns(bool) {\n        if (userAddresses.length == 0) return false;\n        return (userAddresses[userStruct[_userAddress].index] == _userAddress);\n    }\n\n    function saveInsurancePart1( string wall, string floor, string bar, string paint, string stone, string radio1, address userAddress)\n     public returns(bool){\n        insurancePart1s.push(InsurancePart1(wall, floor, bar, paint, stone, radio1, userAddress, now));\n        insurancePart1Len += 1;\n        return true;\n    }\n\n    function saveInsurancePart2(string city,uint money, uint expense)\n     public returns(bool){\n        insurancePart2s.push(InsurancePart2(city,money, expense, now));\n        insurancePart2Len += 1;\n        return true;\n    }\n    \n\n}",
  "sourcePath": "/Users/lioder/Documents/git/B-ink-frontend/B-ink-frontend/contracts/Adoption.sol",
  "compiler": {
    "name": "solc",
    "version": "0.4.24+commit.e67f0147.Emscripten.clang"
  },
  "schemaVersion": "2.0.1",
  "updatedAt": "2018-09-07T10:24:49.483Z"
}